{
  "_format": "hh-sol-artifact-1",
  "contractName": "Transactions",
  "sourceName": "contracts/Transaction.sol",
  "abi": [
    {
      "anonymous": false,
      "inputs": [
        {
          "indexed": false,
          "internalType": "address",
          "name": "sender",
          "type": "address"
        },
        {
          "indexed": false,
          "internalType": "address",
          "name": "receiver",
          "type": "address"
        },
        {
          "indexed": false,
          "internalType": "uint256",
          "name": "amount",
          "type": "uint256"
        },
        {
          "indexed": false,
          "internalType": "string",
          "name": "message",
          "type": "string"
        },
        {
          "indexed": false,
          "internalType": "uint256",
          "name": "timestamp",
          "type": "uint256"
        },
        {
          "indexed": false,
          "internalType": "string",
          "name": "keyword",
          "type": "string"
        }
      ],
      "name": "Transfer",
      "type": "event"
    },
    {
      "inputs": [
        {
          "internalType": "address payable",
          "name": "receiver",
          "type": "address"
        },
        {
          "internalType": "uint256",
          "name": "amount",
          "type": "uint256"
        },
        {
          "internalType": "string",
          "name": "message",
          "type": "string"
        },
        {
          "internalType": "string",
          "name": "keyword",
          "type": "string"
        }
      ],
      "name": "addtoChain",
      "outputs": [],
      "stateMutability": "nonpayable",
      "type": "function"
    },
    {
      "inputs": [],
      "name": "getTransactions",
      "outputs": [
        {
          "components": [
            {
              "internalType": "address",
              "name": "sender",
              "type": "address"
            },
            {
              "internalType": "address",
              "name": "receiver",
              "type": "address"
            },
            {
              "internalType": "uint256",
              "name": "amount",
              "type": "uint256"
            },
            {
              "internalType": "string",
              "name": "message",
              "type": "string"
            },
            {
              "internalType": "uint256",
              "name": "timestamp",
              "type": "uint256"
            },
            {
              "internalType": "string",
              "name": "keyword",
              "type": "string"
            }
          ],
          "internalType": "struct Transactions.TransferStruc[]",
          "name": "",
          "type": "tuple[]"
        }
      ],
      "stateMutability": "view",
      "type": "function"
    },
    {
      "inputs": [],
      "name": "getTransactionsCount",
      "outputs": [
        {
          "internalType": "uint256",
          "name": "",
          "type": "uint256"
        }
      ],
      "stateMutability": "view",
      "type": "function"
    }
  ],
  "bytecode": "0x608060405234801561001057600080fd5b50610c75806100206000396000f3fe608060405234801561001057600080fd5b50600436106100415760003560e01c80631b0966e314610046578063578cb8f91461006257806383920e9014610080575b600080fd5b610060600480360381019061005b919061073d565b61009e565b005b61006a610260565b60405161007791906107eb565b60405180910390f35b610088610269565b6040516100959190610a10565b60405180910390f35b60016000808282546100b09190610a61565b9250508190555060016040518060c001604052803373ffffffffffffffffffffffffffffffffffffffff1681526020018673ffffffffffffffffffffffffffffffffffffffff16815260200185815260200184815260200142815260200183815250908060018154018082558091505060019003906000526020600020906006020160009091909190915060008201518160000160006101000a81548173ffffffffffffffffffffffffffffffffffffffff021916908373ffffffffffffffffffffffffffffffffffffffff16021790555060208201518160010160006101000a81548173ffffffffffffffffffffffffffffffffffffffff021916908373ffffffffffffffffffffffffffffffffffffffff1602179055506040820151816002015560608201518160030190805190602001906101ef9291906104ac565b506080820151816004015560a08201518160050190805190602001906102169291906104ac565b5050507f416cfa4330a4565f45c2fd2dd4826a83a37443aba2ce6f79477c7355afac35fa33858585428660405161025296959493929190610b6f565b60405180910390a150505050565b60008054905090565b60606001805480602002602001604051908101604052809291908181526020016000905b828210156104a357838290600052602060002090600602016040518060c00160405290816000820160009054906101000a900473ffffffffffffffffffffffffffffffffffffffff1673ffffffffffffffffffffffffffffffffffffffff1673ffffffffffffffffffffffffffffffffffffffff1681526020016001820160009054906101000a900473ffffffffffffffffffffffffffffffffffffffff1673ffffffffffffffffffffffffffffffffffffffff1673ffffffffffffffffffffffffffffffffffffffff1681526020016002820154815260200160038201805461037690610c0d565b80601f01602080910402602001604051908101604052809291908181526020018280546103a290610c0d565b80156103ef5780601f106103c4576101008083540402835291602001916103ef565b820191906000526020600020905b8154815290600101906020018083116103d257829003601f168201915b505050505081526020016004820154815260200160058201805461041290610c0d565b80601f016020809104026020016040519081016040528092919081815260200182805461043e90610c0d565b801561048b5780601f106104605761010080835404028352916020019161048b565b820191906000526020600020905b81548152906001019060200180831161046e57829003601f168201915b5050505050815250508152602001906001019061028d565b50505050905090565b8280546104b890610c0d565b90600052602060002090601f0160209004810192826104da5760008555610521565b82601f106104f357805160ff1916838001178555610521565b82800160010185558215610521579182015b82811115610520578251825591602001919060010190610505565b5b50905061052e9190610532565b5090565b5b8082111561054b576000816000905550600101610533565b5090565b6000604051905090565b600080fd5b600080fd5b600073ffffffffffffffffffffffffffffffffffffffff82169050919050565b600061058e82610563565b9050919050565b61059e81610583565b81146105a957600080fd5b50565b6000813590506105bb81610595565b92915050565b6000819050919050565b6105d4816105c1565b81146105df57600080fd5b50565b6000813590506105f1816105cb565b92915050565b600080fd5b600080fd5b6000601f19601f8301169050919050565b7f4e487b7100000000000000000000000000000000000000000000000000000000600052604160045260246000fd5b61064a82610601565b810181811067ffffffffffffffff8211171561066957610668610612565b5b80604052505050565b600061067c61054f565b90506106888282610641565b919050565b600067ffffffffffffffff8211156106a8576106a7610612565b5b6106b182610601565b9050602081019050919050565b82818337600083830152505050565b60006106e06106db8461068d565b610672565b9050828152602081018484840111156106fc576106fb6105fc565b5b6107078482856106be565b509392505050565b600082601f830112610724576107236105f7565b5b81356107348482602086016106cd565b91505092915050565b6000806000806080858703121561075757610756610559565b5b6000610765878288016105ac565b9450506020610776878288016105e2565b935050604085013567ffffffffffffffff8111156107975761079661055e565b5b6107a38782880161070f565b925050606085013567ffffffffffffffff8111156107c4576107c361055e565b5b6107d08782880161070f565b91505092959194509250565b6107e5816105c1565b82525050565b600060208201905061080060008301846107dc565b92915050565b600081519050919050565b600082825260208201905092915050565b6000819050602082019050919050565b600061083d82610563565b9050919050565b61084d81610832565b82525050565b61085c816105c1565b82525050565b600081519050919050565b600082825260208201905092915050565b60005b8381101561089c578082015181840152602081019050610881565b838111156108ab576000848401525b50505050565b60006108bc82610862565b6108c6818561086d565b93506108d681856020860161087e565b6108df81610601565b840191505092915050565b600060c0830160008301516109026000860182610844565b5060208301516109156020860182610844565b5060408301516109286040860182610853565b506060830151848203606086015261094082826108b1565b91505060808301516109556080860182610853565b5060a083015184820360a086015261096d82826108b1565b9150508091505092915050565b600061098683836108ea565b905092915050565b6000602082019050919050565b60006109a682610806565b6109b08185610811565b9350836020820285016109c285610822565b8060005b858110156109fe57848403895281516109df858261097a565b94506109ea8361098e565b925060208a019950506001810190506109c6565b50829750879550505050505092915050565b60006020820190508181036000830152610a2a818461099b565b905092915050565b7f4e487b7100000000000000000000000000000000000000000000000000000000600052601160045260246000fd5b6000610a6c826105c1565b9150610a77836105c1565b9250827fffffffffffffffffffffffffffffffffffffffffffffffffffffffffffffffff03821115610aac57610aab610a32565b5b828201905092915050565b610ac081610832565b82525050565b6000819050919050565b6000610aeb610ae6610ae184610563565b610ac6565b610563565b9050919050565b6000610afd82610ad0565b9050919050565b6000610b0f82610af2565b9050919050565b610b1f81610b04565b82525050565b600082825260208201905092915050565b6000610b4182610862565b610b4b8185610b25565b9350610b5b81856020860161087e565b610b6481610601565b840191505092915050565b600060c082019050610b846000830189610ab7565b610b916020830188610b16565b610b9e60408301876107dc565b8181036060830152610bb08186610b36565b9050610bbf60808301856107dc565b81810360a0830152610bd18184610b36565b9050979650505050505050565b7f4e487b7100000000000000000000000000000000000000000000000000000000600052602260045260246000fd5b60006002820490506001821680610c2557607f821691505b60208210811415610c3957610c38610bde565b5b5091905056fea2646970667358221220ea1aefdeb1067ae1a7d1124f68e21cd200885d026a5fd85ecf6fb45cdd91d9ef64736f6c63430008090033",
  "linkReferences": {},
  "deployedLinkReferences": {}
}